:100000000C9469010C948A010C948A010C948A0165
:100010000C948A010C948A010C948A010C948A0134
:100020000C948A010C948A010C948A010C948A0124
:100030000C948A010C948A010C948A010C948A0114
:100040000C948A010C948A010C948A010C948A0104
:100050000C948A010C948A010C948A010C948A01F4
:100060000C948A010C948A010C948A010C948A01E4
:100070000C948A010C948A010C948A010C948A01D4
:100080000C948A010C948A010C948A010C948A01C4
:100090000C948A010C948A010C948A010C948A01B4
:1000A0000C948A010C948A010C948A010C948A01A4
:1000B0000C948A010C948A010C948A010C948A0194
:1000C0000C948A010C948A010C948A010C948A0184
:1000D0000C948A010C948A010C948A010C948A0174
:1000E0000C948A010C948A010C948A010C948A0164
:1000F0000C948A010C948A010C948A010C948A0154
:100100000C948A010C948A010C948A010C948A0143
:100110000C948A010C948A010C948A010C948A0133
:100120000C948A010C948A010C948A010C948A0123
:100130000C948A010C948A010C948A010C948A0113
:100140000C948A010C948A010C948A010C948A0103
:100150000C948A010C948A010C948A010C948A01F3
:100160000C948A010C948A010C948A010C948A01E3
:100170000C948A010C948A010C948A010C948A01D3
:100180000C948A010C948A010C948A010C948A01C3
:100190000C948A010C948A010C948A010C948A01B3
:1001A0000C948A010C948A010C948A010C948A01A3
:1001B0000C948A010C948A010C948A010C948A0193
:1001C0000C948A010C948A010102040810204080DA
:1001D0001B36637C777BF26B6FC53001672BFED7D4
:1001E000AB76CA82C97DFA5947F0ADD4A2AF9CA4C0
:1001F00072C0B7FD9326363FF7CC34A5E5F171D830
:10020000311504C723C31896059A071280E2EB271D
:10021000B27509832C1A1B6E5AA0523BD6B329E340
:100220002F8453D100ED20FCB15B6ACBBE394A4C20
:1002300058CFD0EFAAFB434D338545F9027F503CA0
:100240009FA851A3408F929D38F5BCB6DA2110FFCC
:10025000F3D2CD0C13EC5F974417C4A77E3D645DC9
:10026000197360814FDC222A908846EEB814DE5E56
:100270000BDBE0323A0A4906245CC2D3AC629195AA
:10028000E479E7C8376D8DD54EA96C56F4EA657AE6
:10029000AE08BA78252E1CA6B4C6E8DD741F4BBD87
:1002A0008B8A703EB5664803F60E613557B986C134
:1002B0001D9EE1F8981169D98E949B1E87E9CE5551
:1002C00028DF8CA1890DBFE6426841992D0FB054FB
:1002D000BB1611241FBECFEFDFE3DEBFCDBF00E0B2
:1002E0000CBF10E2A0E0B0E2EAE6FDE000E00BBFE8
:1002F00002C007900D92A032B107D9F711E2A0E237
:10030000B0E201C01D92A434B107E1F70E94900150
:100310000C94B3060C94000008950E9451040895B3
:100320000E942F040E943F0381E0E0E0F6E0818319
:100330000E944A0480E090E20E9451048BE660E152
:1003400070E04DE851E00E94500280E760E170E00B
:1003500046EB51E00E94500288E760E070E04CE814
:1003600051E00E9450020E94B002FDCFBC0181E02A
:10037000E0E0F6E0858340E050E09A01205D3F4DEB
:10038000FA01EC57FF4DDB01A40FB51F80819C9152
:100390008927F90180834F5F5F4F4031510569F72D
:1003A00020E030E0F901E05EFF4DD901A05DBF4DD6
:1003B0008C9180832F5F3F4F2031310599F780E288
:1003C00090E20E944C0420E030E0F901EC57FF4D30
:1003D000D901A05EBF4D8C9180832F5F3F4F2031AC
:1003E000310599F781E0E0E0F6E0868382E760E19D
:1003F00070E044E850E20E947D020895CF93DF93BD
:10040000EC01FA01DB0140E050E03CC09C91119608
:100410002C911197822F80538A3010F480830CC066
:10042000822F8154863010F4275305C0822F8156C5
:10043000863070F527552083892F80538A3030F419
:100440009295907F8081982B908318C0892F81543A
:10045000863020F4892F90E0C79708C0892F8156F5
:100460008630B0F4892F90E08755904024E0880FC3
:10047000991F2A95E1F72081282B20834F5F5F4F3A
:10048000319612964C175D070CF220E030E002C066
:1004900021E030E0C901DF91CF91089580E0089517
:1004A00020914020309141202A303105D4F460342D
:1004B0007105B8F4F901EE0FFF1FEE0FFF1FE20FF9
:1004C000F31FEE5BFF4D808361837283438354830C
:1004D0002F5F3F4F209340203093412020E030E0B9
:1004E00002C021E030E0C901089586E760E070E0D5
:1004F0004EE452E00E9450020895EF92FF920F9353
:100500001F93CF93DF937B01142F052F0E947C0351
:10051000212F302FC901EC0100E010E014C0E88168
:10052000E295EF70F0E0E05FFF4D80810E947C0378
:10053000E991F0E0EF70F070E05FFF4D80810E9484
:100540007C030F5F1F4F0E151F054CF38AE00E94BE
:100550007C03DF91CF911F910F91FF90EF90089551
:10056000AF92BF92CF92DF92EF92FF920F931F93C1
:10057000DF93CF93CDB7DEB7C15CD040CDBFDEBF38
:100580000E947503982F2091402030914120E2E491
:10059000F0E2EE24FF2407C080813596891751F0E0
:1005A0000894E11CF11CE216F306B4F3E216F3061C
:1005B00009F456C0CC24DD248701000F111F000F61
:1005C000111F0E0D1F1D0D5B1F4D32E4A32EB12C0C
:1005D000AC0EBD1E0EC00E9475038A3009F440C0E7
:1005E0008D30F1F1F501EC0DFD1D80830894C11CE7
:1005F000D11CD8018D919C91880F991FC816D906DE
:1006000050F30E9475038A3011F08D3049F587014F
:10061000000F111F000F111F0E0D1F1D0E5B1F4D30
:10062000B2E0EB2EF12CEC0EFD1EF80181819281DF
:10063000BE016E5B7F4FA7010E94FE01892B81F4F2
:10064000D8011396ED91FC911497C70119958983F0
:100650008AE761E070E0AE014F5F5F4F0E947D026C
:10066000CF53DF4FCDBFDEBFCF91DF911F910F91F1
:10067000FF90EF90DF90CF90BF90AF900895E0E4AF
:10068000F6E088E0818384E08283E0EAF8E083E0BA
:1006900085838BE086831782848180618483848153
:1006A000886084830895DF93CF930F920F92CDB724
:1006B000DEB7FC0169837A8320E030E00BC08091D3
:1006C000A10887FF05C08091A008808381E008C051
:1006D0002F5F3F4F89819A812817390781F780E082
:1006E0000F900F90CF91DF9108958091A10887FF1F
:1006F000FCCF8091A0080895982F8091A10885FFD4
:10070000FCCF9093A0080895FC016083718342831D
:1007100014861386168615860895FC016283089553
:10072000FC018585968520E08F5F8370891321E029
:10073000822F0895DC011D968C911D971E969C9129
:100740001E9720E08F5F83708917B1F021E01D961E
:100750008C911D97FD01E80FF11D67838F5F8370FA
:100760001D968C931D97ED91FC91119783818C7F41
:1007700012969C91892B8383822F0895FC01938587
:10078000848520E0981321E0822F0895DC011C96D7
:100790008C911C97FD01E80FF11D83811C969C91A3
:1007A0001C979F5F93701C969C930895DC011B9689
:1007B0009C911B979F5F93701C968C911C97ED9159
:1007C000FC9111972081981711F480E008951B96F1
:1007D0008C911B97FD01E80FF11D23831B969C93C1
:1007E00081E00895CF93DF93DC011E969C911E97C4
:1007F0001D968C911D97CD91DC911197891721F44D
:100800008B818C7F8B830FC01E968C911E97FD0170
:10081000E80FF11D878188831E968C911E978F5F4C
:1008200083701E968C93DF91CF910895FC0170FF29
:1008300003C08481816002C084818E7F8483608351
:100840000895FC01848180FF05C08081282F30E05D
:10085000316003C08081282F30E0C9010895E0E5B0
:10086000F0E01282158280915000886080935000E1
:100870008091510083FFFCCF88ED84BF83E080939B
:10088000400088E080935000E0E0F6E080E681835D
:10089000858308950895089564E970E20E94990699
:1008A000089564E970E20E9493060895DF93CF9360
:1008B00000D00F92CDB7DEB7DC018C9189831496FE
:1008C0008C9114978A8318968C9118978B831C9619
:1008D0008C911C978C8370E0FB01E370F0709E019B
:1008E0002F5F3F4FE20FF31F80818C93FB01319606
:1008F000E370F070E20FF31F808114968C931497CD
:100900006E5F7F4FFB01E370F070E20FF31F808199
:1009100018968C9318976F5F7F4F63707070260FD7
:10092000371FF90180811C968C932496CDBFDEBFC2
:10093000CF91DF9108953F924F925F926F927F9295
:100940008F929F92AF92BF92CF92DF92EF92FF92DF
:100950000F931F93DF93CF93CDB7DEB76297CDBFD1
:10096000DEBF5C013B01342E2C01DC0120E030E0D5
:10097000F301E20FF31F8C91908189278D932F5FF4
:100980003F4F20313105A1F701E0CE014196898B1F
:100990009A8B8FC0470194E0880C991C9A95E1F7D7
:1009A000860C971C80E090E0F501E80FF91FE081CC
:1009B000F0E0EE52FE4FE491A1E0B0E0AC0FBD1FBD
:1009C000A80FB91FEC9301968031910569F7CE010C
:1009D000029661E00E945604CE01039662E00E94F6
:1009E0005604CE01049663E00E9456047E010894EA
:1009F000E11CF11C6501D70111966C9111978C9146
:100A0000682713961C91139712968C911827162716
:100A100082E04BE10E949D06F70190819127982783
:100A2000D6019C9362818181682782E04BE10E941C
:100A30009D06F701918191279827D60111969C93E5
:100A400063818281682782E04BE10E949D06F70165
:100A5000928191279827D60112969C936081838179
:100A6000682782E04BE10E949D06F70193811927D8
:100A70001827D60113961C93E4E0F0E0EE0EFF1E5B
:100A8000CE0EDF1E89899A89E816F90609F0B3CFE0
:100A9000D50120E030E0F401E20FF31F8C9190814A
:100AA00089278D932F5F3F4F20313105A1F70F5FCD
:100AB0003A94E02EFF2491E0931508F46BCFD50112
:100AC00080E0EC91F0E0EE52FE4FE491ED938F5F09
:100AD0008031B9F7C501019661E00E945604C50155
:100AE000029662E00E945604C501039663E00E94EC
:100AF0005604F70184E0EE0FFF1F8A95E1F7E60D3B
:100B0000F71D20E0D2018C91919189278D932D01C1
:100B10002F5F2031B9F76296CDBFDEBFCF91DF9155
:100B20001F910F91FF90EF90DF90CF90BF90AF900B
:100B30009F908F907F906F905F904F903F9008951F
:100B40002F923F924F925F926F927F928F929F92DD
:100B5000AF92BF92CF92DF92EF92FF920F931F93CB
:100B6000DF93CF9300D00F92CDB7DEB7FC019B018E
:100B7000F42EE52E8B0155E0169507955A95E1F771
:100B8000902EA02EBB2487E090E0A80EB91E8A2CE0
:100B9000880C880C89EF9FEFA80EB91E43E03695AC
:100BA00027954A95E1F78F2D9E2DBF01A9010E943F
:100BB000AA06CF2CDE2CE02EEE0CF02E10E02E013B
:100BC0000894411C511C32010894611C711C34E0D2
:100BD000232E312C2C0E3D1E81C06F2D70E0FB01A9
:100BE000E150F040EE0FFF1FEE0FFF1FEC0DFD1D5B
:100BF00080819181A281B38189839A83AB83BC83F5
:100C0000F01619F198E0991609F045C0CB018770EC
:100C10009070049709F03FC0E981F0E0EE52FE4F7A
:100C2000E491E983EA81F0E0EE52FE4FE491EA8339
:100C3000EB81F0E0EE52FE4FE491EB83EC81F0E0CB
:100C4000EE52FE4FE491EC8326C0F1012081F201C7
:100C50003081F3018081E82FF0E0EE52FE4F949155
:100C6000EB81F0E0EE52FE4FE491EA83E22FF0E0F8
:100C7000EE52FE4F84918B83E32FF0E0EE52FE4F55
:100C800084918C83E12FF0E0E853FE4FE4919E279E
:100C900099831F5F0E2D660F771F660F771F6C0DF0
:100CA0007D1DEF2DF0E0EA19FB09EE0FFF1FEE0F9F
:100CB000FF1FEC0DFD1D80819181A281B3812981EF
:100CC0003A814B815C8182279327A427B527FB01BA
:100CD00080839183A283B383F394E394F81408F49C
:100CE0007CCF2496CDBFDEBFCF91DF911F910F91B6
:100CF000FF90EF90DF90CF90BF90AF909F908F903C
:100D00007F906F905F904F903F902F900895AB0130
:100D100060E071E00E94A0050895AB0160EC70E016
:100D20000E94A0050895AB0160E870E00E94A00554
:100D300008954AE00E949B040895782F88277695AD
:100D400031F008F48627660F08F46427F8CF08F41A
:100D500086270895FB01DC0102C001900D924150ED
:0A0D60005040D8F70895F894FFCF33
:100D6A002B7E151628AED2A6ABF7158809CF4F3CB5
:100D7A0030313233343536373839414243444546C7
:00000001FF
