:100000000C9475010C9496010C9496010C94960135
:100010000C9496010C9496010C9496010C94960104
:100020000C9496010C9496010C9496010C949601F4
:100030000C9496010C9496010C9496010C949601E4
:100040000C9496010C9496010C9496010C949601D4
:100050000C9496010C9496010C9496010C949601C4
:100060000C9496010C9496010C9496010C949601B4
:100070000C9496010C9496010C9496010C949601A4
:100080000C9496010C9496010C9496010C94960194
:100090000C9496010C9496010C9496010C94960184
:1000A0000C9496010C9496010C9496010C94960174
:1000B0000C9496010C9496010C9496010C94960164
:1000C0000C9496010C9496010C9496010C94960154
:1000D0000C9496010C9496010C9496010C94960144
:1000E0000C9496010C9496010C9496010C94960134
:1000F0000C9496010C9496010C9496010C94960124
:100100000C9496010C9496010C9496010C94960113
:100110000C9496010C9496010C9496010C94960103
:100120000C9496010C9496010C9496010C949601F3
:100130000C9496010C9496010C9496010C949601E3
:100140000C9496010C9496010C9496010C949601D3
:100150000C9496010C9496010C9496010C949601C3
:100160000C9496010C9496010C9496010C949601B3
:100170000C9496010C9496010C9496010C949601A3
:100180000C9496010C9496010C9496010C94960193
:100190000C9496010C9496010C9496010C94960183
:1001A0000C9496010C9496010C9496010C94960173
:1001B0000C9496010C9496010C9496010C94960163
:1001C0000C9496010C9496010C9498010C94D8010F
:1001D0000C94BB010C946A060C949E010C949A0139
:1001E00001020408102040801B36637C777BF26B91
:1001F0006FC53001672BFED7AB76CA82C97DFA592D
:1002000047F0ADD4A2AF9CA472C0B7FD9326363F91
:10021000F7CC34A5E5F171D8311504C723C318967E
:10022000059A071280E2EB27B27509832C1A1B6E20
:100230005AA0523BD6B329E32F8453D100ED20FCC2
:10024000B15B6ACBBE394A4C58CFD0EFAAFB434DC5
:10025000338545F9027F503C9FA851A3408F929D62
:1002600038F5BCB6DA2110FFF3D2CD0C13EC5F9752
:100270004417C4A77E3D645D197360814FDC222A58
:10028000908846EEB814DE5E0BDBE0323A0A49068F
:10029000245CC2D3AC629195E479E7C8376D8DD503
:1002A0004EA96C56F4EA657AAE08BA78252E1CA6DB
:1002B000B4C6E8DD741F4BBD8B8A703EB56648033B
:1002C000F60E613557B986C11D9EE1F8981169D9BE
:1002D0008E949B1E87E9CE5528DF8CA1890DBFE641
:1002E000426841992D0FB054BB1611241FBECFEFA9
:1002F000CDBFDFE3DEBF00E00CBF1CE2A0E0B0E258
:10030000E0E1F6E100E00BBF02C007900D92A03DD6
:10031000B107D9F721E3A0EDBCE201C01D92A83ED0
:10032000B207E1F70E94A80A0C94060B0C94000097
:1003300080E008950E94050280E00895FF920F93E7
:100340001F93CF93DF93EC0100E016E0FF24F394BA
:10035000F801F5820E941304F801F682AE0160E113
:1003600070E082E70E94DB0680E0DF91CF911F9171
:100370000F91FF900895FF920F931F93CF93DF93F8
:10038000EC0100E016E0FF24F394F801F5820E94EE
:100390003E05F801F682AE0160E170E082E70E945E
:1003A000DB0680E0DF91CF911F910F91FF900895C0
:1003B00086E60E94DA0785E70E94DA0782E60E9455
:1003C000DA0781E60E94DA0782E70E94DA078AE00C
:1003D0000E94DA0780E00895E0910231F091033144
:1003E00090E1899FB001112420E030E0D901A60FEF
:1003F000B71FA050BE4D40819C91942791932F5FD1
:100400003F4F2031310591F708952F923F924F923F
:100410005F926F927F928F929F92AF92BF92CF9294
:10042000DF92EF92FF920F931F93CF93DF93CDB79D
:10043000DEB7C154D109CDBFDEBF8093D02C9093DD
:10044000D12CAC0122ED3CE222962EAF3FAF229799
:1004500022EE3CE2E2EDFCE2DA016D91AD01619346
:10046000BCE2E23EFB07C1F7FC0170968096419129
:10047000D9014D939D018E179F07C9F732ED232EA9
:100480003CE2332E42E0542E22EF30E32CA33DA376
:100490005E0131E1A30EB11C950182EF90E3F10101
:1004A0004191DC014D93CD015785D9015D939D01AB
:1004B00047A7B1E382309B0799F7852D8695815038
:1004C000E0E18E9FC0011124E2EFF0E320E030E094
:1004D000B901680F791F60547D4D5081DB014C914B
:1004E000452741932F5F3F4F2031310589F782EF38
:1004F00090E3FC012081A22FB0E0A050BF4D2C91D1
:10050000DC012D93CD01B1E382309B0791F7E0E14F
:10051000E9A3CE010196E2EFF0E32191DC012D93F6
:10052000CD01B1E3E230FB07C1F7C980EC2DF0E06B
:10053000EA80F12C0B8110E0AC81B0E06D8170E0BD
:100540004E8150E02F81C22ED12CCEAEDFAE8884FA
:10055000912C8985282F30E02EA33FA38A85C82EB1
:10056000D12CC8A6D9A68B85282F30E02AA73BA777
:100570006C84862D90E08CA79DA78D85C82ED12CEC
:10058000CEA6DFA68E8590E04F84242D30E028ABE8
:1005900039AB4888C42CD12CCAAADBAA6E0122EF41
:1005A000622E20E3722E412C9F012054374D2AA346
:1005B0003BA3F701E054F94DECABFDAB980120549F
:1005C000384D2EAB3FABFD01E054FA4DE8AFF9AF2B
:1005D0009B012054354D2AAF3BAFDA01A054B64DF4
:1005E000ACAFBDAFEEADFFADE054FB4DEEAFFFAF36
:1005F00094012054344D490108A519A50054164D05
:100600006AA57BA56054754D4CA55DA540545A4D17
:100610002EA53FA52054384D8054994D411042C01D
:10062000AAA1BBA1FC91ACA9BDA9EC91EF27AEA9F1
:10063000BFA9FC90FE26A8ADB9ADEC91FE26AAADEF
:10064000BBADEC91FE26ACADBDADEC91FE26AEADE2
:10065000BFADEC91FE26D401EC91FE26AEA1BFA168
:10066000A054BB4DAC91FA26D801EC91FE26DB01DB
:10067000EC91FE26DA01EC91FE26D901EC91FE26E2
:10068000DC01EC91FE26A8A9B9A9A054B74DAC9104
:10069000FA26AAA9BBA9A054BB4DAC91FA26F092A8
:1006A000F23004C0D601EC91D301EC934394BFEF38
:1006B000CB1ADB0AEFEF6E1A7E0AF0E14F12AECFD3
:1006C00029A1215029A3211124CFE2EFF0E3D50184
:1006D0008D915D01908189278193B1E3E230FB0721
:1006E000B1F780E090E09101205E3F4FECA1FDA1C9
:1006F0004191ECA3FDA3D901A80FB91F4C9301961A
:100700008031910599F7539453941901F2E45F12E3
:10071000BBCEA0E0B2E280E12296EEADFFAD229723
:1007200090819C93908950969C9350979F0133950C
:10073000F901908190969C93909722962EAD3FADB3
:100740002297205F3E4FF9019081D0969C93D097DD
:100750009D01205C3F4F22964EAD5FAD22975E5FBC
:10076000FA019081F9019083205F3F4F22964EADB0
:100770005FAD2297405F5D4FFA019081F901908350
:10078000205F3F4F22964EAD5FAD22975D5FFA012D
:100790009081F9019083205F3F4F22964EAD5FAD6F
:1007A0002297405F5C4FFA019081F9019083205FAE
:1007B0003F4F22964EAD5FAD22975C5FFA0190816C
:1007C000F9019083205F3F4F22964EAD5FAD229797
:1007D000405F5B4FFA019081F9019083815022962E
:1007E0002EAD3FAD22972F5F3F4F22962EAF3FAFEA
:1007F00022971196811190CFCF5BDF4FCDBFDEBF27
:10080000DF91CF911F910F91FF90EF90DF90CF90EC
:10081000BF90AF909F908F907F906F905F904F9020
:100820003F902F9008952F923F924F925F926F9238
:100830007F928F929F92AF92BF92CF92DF92EF9270
:10084000FF920F931F93CF93DF93CDB7DEB7AF9790
:10085000CDBFDEBF8C018093023190930331F12C28
:100860001C0120E1220E311CCE014196898B9A8B0E
:100870008F2D0E94EC01D801EC91F0E0E050FF4D8B
:1008800080818D93A215B305B9F790E19B8BFE0192
:100890003196D8018D91819369887A886E167F068A
:1008A000C9F7A980B12CCA80D12CAB81B0E0EC8112
:1008B000F0E06D8170E04E8150E02F8130E088855E
:1008C000882E912C8EA69FA6E9848E2D90E08C8B8D
:1008D0009D8B6A84862C912C8E8A9F8AEB848E2D28
:1008E00090E0888F998FEC846E2C712C6A8E7B8EB1
:1008F0004D84842C912C8C8E9D8E8E84912CEF8433
:100900008E2D90E08E8F9F8FE8886E2C712C68A2C0
:1009100079A22E013801E12CC5018054974D8AA39C
:100920009BA3C6018054994D8CA39DA3CD018054F7
:10093000984D8EA39FA3CF0180549A4D88A799A765
:10094000FB01E054F54DEAA7FBA7CA018054964D80
:100950008CA79DA7F901E054FB4D5F018EA59FA5D3
:100960008054944D6C016E897F896054764D488D1A
:10097000598D4054554DEA8DFB8DE054FA4DEE8B68
:10098000FF8BAC8DBD8DA054B84DC4018054994DE2
:10099000E11044C0EAA1FBA12081ECA1FDA13081BE
:1009A0002327EEA1FFA190809226E8A5F9A530812A
:1009B0009326EAA5FBA530819326ECA5FDA5308101
:1009C0009326F50130819326F601208192262C8909
:1009D0003D8920543B4DF90120819226FB01208165
:1009E0009226FA0120819226EE89FF8920819226A3
:1009F0002C919226FC01208192262E8D3F8D205431
:100A0000374DF9012081922628A139A120543B4D70
:100A1000F90120819226F801908204C0F201208120
:100A2000F3012083E394FFEF4F1A5F0A2FEF621A5E
:100A3000720AE0E1EE12ACCFFB89F150FB8BF111B1
:100A400026CFF39489E0682EF61012CF89E0AF9696
:100A5000CDBFDEBFDF91CF911F910F91FF90EF903F
:100A6000DF90CF90BF90AF909F908F907F906F90CE
:100A70005F904F903F902F900C94EC012F923F92FB
:100A80004F925F926F927F928F929F92AF92BF929E
:100A9000CF92DF92EF92FF920F931F93CF93DF934A
:100AA000CDB7DEB7AF97CDBFDEBF8C0180930231EB
:100AB0009093033189E0F82E9E012F5E3F4F298BE2
:100AC0003A8BA801405F5F4F4EA75FA78F2D0E9412
:100AD000EC0150E15B8B1801AE014F5F5F4F4A01A3
:100AE000FA01D8018D91819349885A88E415F5055A
:100AF000C9F7AA80B12CCB80D12CAC81B0E0ED81BC
:100B0000F0E06E8170E04F81242F30E02CA73DA7EC
:100B10006884712C8985482F50E04C8B5D8B8A85C9
:100B2000482E512C4E8A5F8A8B85282F30E0288FE3
:100B3000398F4C84442D50E04A8F5B8F8D85482E31
:100B4000512C4C8E5D8E8E8590E02F8530E0E888AC
:100B50004E2D50E04E8F5F8FE9804E2C512C48A2D5
:100B600059A22801E12CA5014054574D4AA35BA38B
:100B7000A6014054594D4CA35DA3AD014054584DBE
:100B80004EA35FA3DF01A054BA4DA8A7B9A7FB01EC
:100B9000E054F54DEAA7FBA74CA55DA54054564D82
:100BA0004CA75DA7D301A054BB4D3D01EC89FD8945
:100BB000E054F44D6F01688D798D6054764D4A8D07
:100BC0005B8D4054554DAC8DBD8DA054BA4D8054B5
:100BD000984D2054394DFFE0EF1240C0EAA1FBA12F
:100BE000B080ECA1FDA1A080AB24EEA1FFA1B0805C
:100BF000BA24E8A5F9A5A080BA24EAA5FBA5A0809F
:100C0000BA24ECA5FDA5A080BA24F301A080BA24E3
:100C1000F601A080BA24EE89FF89E054FB4DE08103
:100C2000BE26FB01A080BA24FA01A080BA24EC9170
:100C3000BE26FC01A080BA24F901A080BA24EE8D62
:100C4000FF8DE054F74DE081BE26E8A1F9A1E05404
:100C5000FB4DE081BE26F801B78604C0F401B180E7
:100C6000F201B082E394FFEF8F1A9F0AEFEF4E1A62
:100C70005E0AF0E1EF12AFCF2B8921502B8B2111AF
:100C80002ACFD101EC91F0E0E050F04E8081F101EB
:100C900081931F014EA45FA44E165F0691F7FA944C
:100CA000F11014CF80E0AF96CDBFDEBFDF91CF91C2
:100CB0001F910F91FF90EF90DF90CF90BF90AF907A
:100CC0009F908F907F906F905F904F903F902F906C
:100CD0000C94EC0180E00895DB01FA019F01241BD4
:100CE000350B28173907D4F52C9111963C911197A3
:100CF00060ED630F6A3010F460830FC06FEB630F19
:100D0000663010F4375308C06FE9630F663018F08F
:100D100081E090E008953755308330ED320F3A305E
:100D200018F42295207F14C03FEB320F363020F4A8
:100D300030E02753310907C03FE9320F363040F722
:100D400030E02755310964E0220F331F6A95E1F73F
:100D50003081232B208331961296C0CF80E090E023
:100D6000089520910431309105312A303105CCF4B9
:100D700060347105B0F495E0929FF001939FF00DFF
:100D80001124EA5FFE4C8083618372834383548322
:100D90002F5F3F4F209304313093053180E090E086
:100DA000089581E090E008954AE656E060E070E042
:100DB00086E70C94B106CF92DF92EF92FF920F93E9
:100DC0001F93CF93DF938B01EA010E94DA077E0124
:100DD000C7018C1B9D0B80179107B4F46701D701E5
:100DE000ED917D01E295EF70F0E0E054F34D8081EC
:100DF0000E94DA07D601EC91EF70F0E0E054F34D79
:100E000080810E94DA07E4CF8AE0DF91CF911F91C1
:100E10000F91FF90EF90DF90CF900C94DA07AF9294
:100E2000BF92CF92DF92EF92FF920F931F93CF93D7
:100E3000DF93CDB7DEB7C15CD109CDBFDEBF0E9465
:100E4000D307409104315091053126E031E300E0B1
:100E500010E00417150754F42B5F3F4FF901359745
:100E60009081891739F00F5F1F4FF3CF04171507D3
:100E700009F454C09E012F5F3F4F7901690125E0BD
:100E8000209FC001219F900D1124DC01A95FBE4C61
:100E90005D01D5018D919C91880F991F96012E19A6
:100EA0003F092817390750F40E94D3078A30B1F15F
:100EB0008D30A1F1F60181936F01EBCF0E94D30732
:100EC0008A3011F08D3051F525E0209FC001219F1F
:100ED000900D11248C010A5F1E4CAE014F575F4FDD
:100EE000B701F801818192810E946C06892BB1F4CF
:100EF000D8011396ED91FC911497CE018F579F4F17
:100F00001995CF53DF4F8883C15CD040AE014F535A
:100F10005F4F61E070E08AE70E94DB06CF53DF4F4E
:100F2000CDBFDEBFDF91CF911F910F91FF90EF906A
:100F3000DF90CF90BF90AF900895E0E4F6E088E0B6
:100F4000818384E08283E0EAF8E083E085838BE0BC
:100F5000868317828481806184838481886084830E
:100F60000895CF93DF931F921F92CDB7DEB76983A9
:100F70007A8320E030E049815A812417350769F0EF
:100F80004091A10847FF06C02091A008FC012083E2
:100F900081E004C02F5F3F4FEECF80E00F900F90B5
:100FA000DF91CF9108958091A10887FFFCCF8091B8
:100FB000A00808959091A10895FFFCCF8093A00808
:100FC0000895FC016083718342831486138616861C
:100FD00015860895FC0162830895FC019585268598
:100FE0009F5F937081E0921301C080E008951F938A
:100FF000CF93DF93EC01162F0E94ED07882379F041
:101000009D85FE01E90FF11D17839F5F93709D87FA
:10101000E881F98193819C7F2A81922B9383DF91D0
:10102000CF911F910895FC012385948581E02913B8
:1010300001C080E00895FC018485DF01A80FB11D87
:1010400013968C9194859F5F937094870895FC010B
:1010500083858F5F83702485A081B1819C918217E5
:1010600049F02385DF01A20FB11D13969C9383875E
:1010700081E0089580E00895CF93DF93FC01968589
:101080008585A081B181981307C013968C91139721
:101090008C7F13968C930AC08685EF01C80FD11DF3
:1010A0008F818C9386858F5F83708687DF91CF9148
:1010B0000895FC01848170FF02C0816001C08E7FB1
:1010C000848360830895FC01848180FF04C0808153
:1010D00090E091600895808190E008951092520010
:1010E000109255008091500088608093500080914C
:1010F000510083FFFCCF88ED84BF83E080934000E4
:1011000088E08093500080E6809301068093050676
:101110000895089568E371E30C94890A68E371E324
:101120000C94980A0895CF93DF9300D01F92CDB707
:10113000DEB7DC018C91898314968C9114978A8395
:1011400018968C9118978B831C968C911C978C8386
:10115000862F8370E1E0F0E0EC0FFD1FE80FF11D3A
:1011600080818C9370E0FB013196E370FF2781E072
:1011700090E08C0F9D1FE80FF91F808114968C93CF
:101180001497FB013296E370FF2781E090E08C0F0B
:101190009D1FE80FF91F808118968C931897FB010B
:1011A0003396E370FF2781E090E08C0F9D1FE80FDE
:1011B000F91F80811C968C932496CDBFDEBFDF91F2
:1011C000CF9108952F923F924F925F926F927F92AC
:1011D0008F929F92AF92BF92CF92DF92EF92FF9247
:1011E0000F931F93CF93DF93CDB7DEB76397CDBF38
:1011F000DEBF7C015B01242EDB018A8B9B8B2C01E3
:1012000020E1420E511CFC018D9190818927819330
:10121000E415F505C9F7450130E1830E911C81E025
:10122000898B3E01A1E16A0E711C21E0221508F0B4
:1012300081C08E010F5F1F4FD801C701FC012191B2
:10124000CF01E22FF0E0E651FE4FE491ED93A615B9
:10125000B705A1F761E0CE0102960E94930862E013
:10126000CE0103960E94930863E0CE0104960E948B
:1012700093086701D8016C9111968C91119768279A
:1012800012963C90129713968C91382636264BE195
:1012900082E00E949B0AF801908189278325D6016C
:1012A0008C936181828168274BE182E00E949B0AD6
:1012B000F801918189278325D60111968C9362814B
:1012C000838168274BE182E00E949B0AF8019281AA
:1012D00089278325D60112968C93638180816827A4
:1012E0004BE182E00E949B0AF8019381892738260E
:1012F000D60113963C920C5F1F4FB4E0CB0ED11C6D
:101300000615170509F0B6CFF70180E090E0D4018B
:10131000A80FB91F30812C9123272193019680318A
:101320009105A9F7E989EF5FE98B2A94F0E18F0E27
:10133000911C7BCFD701EC91F0E0E651FE4FE49198
:10134000ED93A415B505B9F761E0C70101960E94B8
:10135000930862E0C70102960E94930863E0C70108
:1013600003960E949308A98930E1A39FC00111242C
:1013700020E030E0FC01E20FF31FEA0DFB1DAA891B
:10138000BB895C91408145274D93AA8BBB8B2F5F16
:101390003F4F2031310571F76396CDBFDEBFDF913E
:1013A000CF911F910F91FF90EF90DF90CF90BF9062
:1013B000AF909F908F907F906F905F904F903F90F5
:1013C0002F9008958F929F92AF92BF92CF92DF920B
:1013D000EF92FF920F931F93CF93DF93EA016B017C
:1013E000F5E0D694C794FA95E1F7EC2C8601112725
:1013F0009801295F3F4FF22EFF0CFF0CAB01A3E0D9
:1014000056954795AA95E1F7BC01CE010E94FD0AC9
:10141000DC2C2C2D30E02F1508F06EC0622F70E010
:10142000AB014150504C440F551F440F551F4C0FFA
:101430005D1FFA0180819181A281B3812D1509F18F
:10144000F8E0EF1241C0E22FE770E43009F03CC051
:10145000E82FF0E0E651FE4FE4918E2FE92FF0E007
:10146000E651FE4FE4919E2FEA2FF0E0E651FE4F49
:10147000E491AE2FEB2FF0E0E651FE4FE491BE2F4A
:1014800023C0D22EDE0CC82EAB2EE92FF0E0E651A1
:10149000FE4FB490EA2FF0E0E651FE4FE4919E2F0C
:1014A000EA2DF0E0E651FE4FE491AE2FEC2DF0E096
:1014B000E651FE4FE491BE2FE32FF0E0E052FE4FE5
:1014C000E4918B2D8E273F5FFB01E01BF10BEE0FAC
:1014D000FF1FEE0FFF1FEC0FFD1F80809180A28089
:1014E000B38088259925AA25BB25FA018483958395
:1014F000A683B7832F5F8FCFDF91CF911F910F917D
:10150000FF90EF90DF90CF90BF90AF909F908F9023
:101510000895AB0160E870E00C94E209AB0160EC67
:1015200070E00C94E209AB0160E071E00C94E20918
:101530004AE00C94E208782F8827769531F008F479
:101540008627660F08F46427F8CF08F486270895E5
:10155000CF93DF93CDB7DEB7A097CDBFDEBF80E2DC
:10156000E0EAF2E2DE01119601900D928A95E1F730
:101570000E946E080E949D0781E080930106CE01C3
:1015800001960E94050288E60E94DA0785E60E941D
:10159000DA078CE60E94DA078CE60E94DA078FE60B
:1015A0000E94DA078AE00E94DA070E94D4064AE91C
:1015B00051E060E270E08BE60E94B1064EE951E036
:1015C00060E170E080E70E94B1064BEB51E060E122
:1015D00070E084E60E94B10648E951E060E070E006
:1015E00088E70E94B10648ED51E060E070E086E6D1
:1015F0000E94B1060E940F07FDCFFB01DC0102C073
:1016000001900D9241505040D8F70895F894FFCFC3
:10161000A52D328F0E3038C054E69E39557E52913A
:101620006403575A1C6007182172A8D129C6A43F29
:10163000E0278D0C82EAAEB49A6349E542E415B71F
:10164000C806709D417519C9AAFC4DBF2A7384D57F
:10165000C3AF2B86A7B1B25B46D39FFDD40F9C2F9F
:101660009B43EFD979B6537FC1F023E7255EB51EC2
:10167000A2DFA6FEAC22F9E24ABC35CAEE78056BC1
:1016800051E159A3F27156116A8994658CBB773C7C
:101690007B28ABD231DEC45FCCCF762CB8D82E36C7
:1016A000DB69B31495BE62A13B1666E95C6C6DAD57
:1016B00037614BB9E3BAF1A08583DA47C5B033FA95
:1016C000966F6EC2F650FF5DA98E171B977DEC5882
:1016D000F71FFB7C090D7A674587DCE84F1D4E0438
:1016E000EBF8F33E3DBD8A88DDCD0B139802938065
:1016F00090D02434CBEDF4CE99104440923A012698
:10170000121A4868F5818BC7D6200A08004CD77496
:10171000FCEEDD11CF6E3116FBC4FADA23C5044DA1
:10172000E977F0DB932E99BA1736F1BB14CD5FC180
:10173000F918655AE25CEF21811C3C428B018E4F07
:10174000058402AEE36A8FA0060BED987FD4D31F09
:10175000EB342C51EAC848ABF22A68A2FD3ACECC51
:10176000B5700E56080C7612BF7213479CB75D8792
:1017700015A19629107B9AC7F391786F9D9EB2B1FF
:101780003275193DFF358A7E6D54C680C3BD0D5735
:10179000DFF524A93EA843C9D779D6F67C22B90340
:1017A000E00FECDE7A94B0BCDCE828504E330A4AF5
:1017B000A79760731E0062441AB83882649F26415E
:1017C000AD454692275E552F8CA3A57D69D5953BE7
:1017D0000758B34086AC1DF730376BE488D9E789EA
:1017E000E11B83494C3FF8FE8D53AA90CAD885610E
:1017F000207167A42D2B095BCB9B25D0BEE56C52D5
:1018000059A674D2E6F4B4C0D166AFC2394B63B600
:101810008899AABBCCDDEEFF0011223344556677D0
:10182000FEDCBA98765432100123456789ABCDEFC0
:10183000DB31485315694343228D6AEF8CC78C44D2
:101840003D4553D8E9CFEC6815EBADC40A9FFD04C4
:1018500057646468C44A5E28D3E59246F429F1AC23
:10186000BD079435165C6432B532E82834DA581B6B
:1018700051E640757E8745DE705727265A0098B19D
:101880005A7925017B9FDD3ED72A91A22286F984D1
:10189000BB44E25378C73123A5F32F73CDB6E517C8
:1018A00072E9DD7416BCF45B755DBAA88E4A4043DC
:1018B0008899AABBCCDDEEFF001122334455667730
:1018C000FEDCBA98765432100123456789ABCDEF20
:1018D0006EA276726C487AB85D27BD10DD849401E3
:1018E000DC87ECE4D890F4B3BA4EB92079CBEB02A4
:1018F000B2259A96B4D88E0BE7690430A44F7F03C3
:101900007BCD1B0B73E32BA5B79CB140F25515049F
:10191000156F6D791FAB511DEABB0C502FD181059E
:10192000A74AF7EFAB73DF160DD208608B9EFE0659
:10193000C9E8819DC73BA5AE50F5B570561A6A0738
:10194000F6593616E6055689ADFBA18027AA2A0866
:1019500098FB40648A4D2C31F0DC1C90FA2EBE09B5
:101960002ADEDAF23E95A23A17B518A05E61C10AE6
:10197000447CAC8052DDD8824A92A5B083E5550BF9
:101980008D942D1D95E67D2C1A6710C0D5FF3F0C58
:10199000E3365B6FF9AE07944740ADD0087BAB0DE3
:1019A0005113C1F94D76899FA029A9E0AC34D40E1A
:1019B0003FB1B78B213EF327FD0E14F071B0400FFD
:1019C0002FB26C2C0F0AACD1993581C34E975410AD
:1019D00041101A5E6342D669C4123CD39313C011FE
:1019E000F33580C8D79A5862237B38E3375CBF123F
:1019F0009D97F6BABBD222DA7E5C85F3EAD82B1328
:101A0000547F77277CE987742EA93083BCC24114A8
:101A10003ADD015510A1FDCC738E8D936146D5152D
:101A200088F89BC3A47973C794E789A3C509AA164C
:101A3000E65AEDB1C831097FC9C034B3188D3E17DD
:101A4000D9EB5A3AE90FFA5834CE2043693D7E1853
:101A5000B7492C48854780E069E99D53B4B9EA1934
:101A6000056CB6DE319F0EEB8E80996310F6951AE9
:101A70006BCEC0AC5DD77453D3A72473CD72011B5A
:101A8000A22641319AECD1FD835291039B686B1CD5
:101A9000CC843743F6A4AB45DE752C1346ECFF1D12
:101AA0007EA1ADD5427C254E391C2823E2A3801EA1
:101AB0001003DBA72E345FF6643B95333F27141FDA
:101AC0005EA7D8581E149B61F16AC1459CEDA82001
:101AD000000102030405060708090A0B0C0D0E0F8E
:101AE000101112131415161718191A1B1C1D1E1F7E
:101AF000202122232425262728292A2B2C2D2E2F6E
:101B0000303132333435363738393A3B3C3D3E3F5D
:101B1000404142434445464748494A4B4C4D4E4F4D
:101B2000505152535455565758595A5B5C5D5E5F3D
:101B3000606162636465666768696A6B6C6D6E6F2D
:101B4000707172737475767778797A7B7C7D7E7F1D
:101B5000808182838485868788898A8B8C8D8E8F0D
:101B6000909192939495969798999A9B9C9D9E9FFD
:101B7000A0A1A2A3A4A5A6A7A8A9AAABACADAEAFED
:101B8000B0B1B2B3B4B5B6B7B8B9BABBBCBDBEBFDD
:101B9000C0C1C2C3C4C5C6C7C8C9CACBCCCDCECFCD
:101BA000D0D1D2D3D4D5D6D7D8D9DADBDCDDDEDFBD
:101BB000E0E1E2E3E4E5E6E7E8E9EAEBECEDEEEFAD
:101BC000F0F1F2F3F4F5F6F7F8F9FAFBFCFDFEFF9D
:101BD00000102030405060708090A0B0C0D0E0F085
:101BE000C3D3E3F38393A3B3435363730313233345
:101BF0004555657505152535C5D5E5F58595A5B515
:101C00008696A6B6C6D6E6F60616263646566676F4
:101C10008A9AAABACADAEAFA0A1A2A3A4A5A6A7AA4
:101C20004959697909192939C9D9E9F98999A9B9A4
:101C3000CFDFEFFF8F9FAFBF4F5F6F7F0F1F2F3F34
:101C40000C1C2C3C4C5C6C7C8C9CACBCCCDCECFC54
:101C5000D7C7F7E79787B7A7574777671707372794
:101C600014043424544474649484B4A4D4C4F4E4B4
:101C70009282B2A2D2C2F2E21202322252427262C4
:101C80005141716111013121D1C1F1E19181B1A1C4
:101C90005D4D7D6D1D0D3D2DDDCDFDED9D8DBDADF4
:101CA0009E8EBEAEDECEFEEE1E0E3E2E5E4E7E6ED4
:101CB00018083828584878689888B8A8D8C8F8E824
:101CC000DBCBFBEB9B8BBBAB5B4B7B6B1B0B3B2BE4
:101CD0000020406080A0C0E0C3E383A343630323EC
:101CE00045650525C5E585A586A6C6E6062646669C
:101CF0008AAACAEA0A2A4A6A49690929C9E989A94C
:101D0000CFEF8FAF4F6F0F2F0C2C4C6C8CACCCECFB
:101D1000D7F797B7577717371434547494B4D4F46B
:101D200092B2D2F21232527251711131D1F191B19B
:101D30005D7D1D3DDDFD9DBD9EBEDEFE1E3E5E7ECB
:101D40001838587898B8D8F8DBFB9BBB5B7B1B3BFB
:101D50006D4D2D0DEDCDAD8DAE8EEECE2E0E6E4EAB
:101D600028086848A888E8C8EBCBAB8B6B4B2B0BDB
:101D7000E7C7A7876747270724046444A484E4C40B
:101D8000A282E2C22202624261412101E1C1A1813B
:101D9000BA9AFADA3A1A7A5A79593919F9D9B999AB
:101DA000FFDFBF9F7F5F3F1F3C1C7C5CBC9CFCDC5B
:101DB00030107050B090F0D0F3D3B393735333130B
:101DC00075553515F5D5B595B696F6D636167656BB
:101DD0000085C94C51D4981DA2276BEEF3763ABF0B
:101DE00087024ECBD6531F9A25A0EC6974F1BD38FB
:101DF000CD4804819C1955D06FEAA6233EBBF772EB
:101E00004ACF83061B9ED257E86D21A4B93C70F5DA
:101E100059DC9015088DC144FB7E32B7AA2F63E6CA
:101E2000DE5B17928F0A46C37CF9B5302DA8E461BA
:101E300094115DD8C5400C8936B3FF7A67E2AE2BAA
:101E40001396DA5F42C78B0EB13478FDE06529AC9A
:101E5000B2377BFEE3662AAF1095D95C41C4880D8A
:101E600035B0FC7964E1AD2897125EDBC6430F8A7A
:101E70007FFAB6332EABE762DD5814918C0945C06A
:101E8000F87D31B4A92C60E55ADF93160B8EC2475A
:101E9000EB6E22A7BA3F73F649CC8005189DD1544A
:101EA0006CE9A5203DB8F471CE4B07829F1A56D33A
:101EB00026A3EF6A77F2BE3B84014DC8D5501C992A
:101EC000A12468EDF07539BC0386CA4F52D79B1E1A
:101ED0000094EB7F1581FE6A2ABEC1553FABD4400A
:101EE00054C0BF2B41D5AA3E7EEA95016BFF8014FA
:101EF000A83C43D7BD2956C2821669FD97037CE8EA
:101F0000FC681783E97D0296D6423DA9C35728BCD9
:101F1000930778EC86126DF9B92D52C6AC3847D3C9
:101F2000C7532CB8D24639ADED790692F86C1387B9
:101F30003BAFD0442EBAC5511185FA6E0490EF7BA9
:101F40006FFB84107AEE910545D1AE3A50C4BB2F99
:101F5000E5710E9AF0641B8FCF5B24B0DA4E31A589
:101F6000B1255ACEA4304FDB9B0F70E48E1A65F179
:101F70004DD9A63258CCB32767F38C1872E6990D69
:101F8000198DF2660C98E77333A7D84C26B2CD5959
:101F900076E29D0963F7881C5CC8B72349DDA23649
:101FA00022B6C95D37A3DC48089CE3771D89F66239
:101FB000DE4A35A1CB5F20B4F4601F8BE1750A9E29
:101FC0008A1E61F59F0B74E0A0344BDFB5215ECA19
:101FD00000C043838646C505CF0F8C4C49890ACA89
:101FE0005D9D1EDEDB1B98589252D11114D4579779
:101FF000BA7AF9393CFC7FBF75B536F6F333B07069
:10200000E727A46461A122E228E86BABAE6EED2D58
:10201000B777F43431F172B278B83BFBFE3EBD7D48
:10202000EA2AA9696CAC2FEF25E566A6A363E02038
:102030000DCD4E8E8B4BC808C2028141448407C728
:10204000509013D3D61695559F5FDC1C19D95A9A18
:10205000AD6DEE2E2BEB68A862A221E1E424A76708
:10206000F030B37376B635F53FFF7CBCB979FA3AF8
:1020700017D754949151D212D8189B5B5E9E1DDDE8
:102080004A8A09C9CC0C8F4F8545C60603C34080D8
:102090001ADA59999C5CDF1FD5159656539310D0C8
:1020A000478704C4C10182428848CB0B0ECE4D8DB8
:1020B000A060E32326E665A56FAF2CECE929AA6AA8
:1020C000FD3DBE7E7BBB38F832F271B1B474F73798
:1020D00000C247858E4CC90BDF1D985A519316D408
:1020E0007DBF3AF8F331B476A260E5272CEE6BA9F8
:1020F000FA38BD7F74B633F125E762A0AB69EC2EE8
:102100008745C00209CB4E8C589A1FDDD6149153D7
:1021100037F570B2B97BFE3CE82AAF6D66A421E3C7
:102120004A880DCFC40683419557D2101BD95C9EB7
:10213000CD0F8A48438104C612D055979C5EDB19A7
:10214000B072F7353EFC79BB6FAD28EAE123A66497
:102150006EAC29EBE022A765B173F6343FFD78BA87
:1021600013D154969D5FDA18CC0E8B49428005C777
:102170009456D3111AD85D9F4B890CCEC507824067
:10218000E92BAE6C67A520E236F471B3B87AFF3D57
:10219000599B1EDCD71590528644C10308CA4F8D47
:1021A00024E663A1AA68ED2FFB39BC7E75B732F037
:1021B000A361E4262DEF6AA87CBE3BF9F230B57727
:1021C000DE1C995B509217D501C346848F4DC80A17
:1021D00000FB35CE6A915FA4D42FE11ABE458B7007
:1021E0006B905EA501FA34CFBF448A71D52EE01BF7
:1021F000D62DE318BC47897202F937CC68935DA6E7
:10220000BD468873D72CE21969925CA703F836CDD6
:102210006F945AA105FE30CBBB408E75D12AE41FC6
:1022200004FF31CA6E955BA0D02BE51EBA418F74B6
:10223000B9428C77D328E61D6D9658A307FC32C9A6
:10224000D229E71CB8438D7606FD33C86C9759A296
:10225000DE25EB10B44F817A0AF13FC4609B55AE86
:10226000B54E807BDF24EA11619A54AF0BF03EC576
:1022700008F33DC6629957ACDC27E912B64D837866
:10228000639856AD09F23CC7B74C8279DD26E81356
:10229000B14A847FDB20EE15659E50AB0FF43AC146
:1022A000DA21EF14B04B857E0EF53BC0649F51AA36
:1022B000679C52A90DF638C3B348867DD922EC1726
:1022C0000CF739C2669D53A8D823ED16B249877C16
:1022D000303132333435363738394142434445465C
:00000001FF
