:100000000C9469010C948A010C948A010C948A0165
:100010000C948A010C948A010C948A010C948A0134
:100020000C948A010C948A010C948A010C948A0124
:100030000C948A010C948A010C948A010C948A0114
:100040000C948A010C948A010C948A010C948A0104
:100050000C948A010C948A010C948A010C948A01F4
:100060000C948A010C948A010C948A010C948A01E4
:100070000C948A010C948A010C948A010C948A01D4
:100080000C948A010C948A010C948A010C948A01C4
:100090000C948A010C948A010C948A010C948A01B4
:1000A0000C948A010C948A010C948A010C948A01A4
:1000B0000C948A010C948A010C948A010C948A0194
:1000C0000C948A010C948A010C948A010C948A0184
:1000D0000C948A010C948A010C948A010C948A0174
:1000E0000C948A010C948A010C948A010C948A0164
:1000F0000C948A010C948A010C948A010C948A0154
:100100000C948A010C948A010C948A010C948A0143
:100110000C948A010C948A010C948A010C948A0133
:100120000C948A010C948A010C948A010C948A0123
:100130000C948A010C948A010C948A010C948A0113
:100140000C948A010C948A010C948A010C948A0103
:100150000C948A010C948A010C948A010C948A01F3
:100160000C948A010C948A010C948A010C948A01E3
:100170000C948A010C948A010C948A010C948A01D3
:100180000C948A010C948A010C948A010C948A01C3
:100190000C948A010C948A010C948A010C948A01B3
:1001A0000C948A010C948A010C948A010C948A01A3
:1001B0000C948A010C948A010C948A010C948A0193
:1001C0000C948A010C948A010102040810204080DA
:1001D0001B36637C777BF26B6FC53001672BFED7D4
:1001E000AB76CA82C97DFA5947F0ADD4A2AF9CA4C0
:1001F00072C0B7FD9326363FF7CC34A5E5F171D830
:10020000311504C723C31896059A071280E2EB271D
:10021000B27509832C1A1B6E5AA0523BD6B329E340
:100220002F8453D100ED20FCB15B6ACBBE394A4C20
:1002300058CFD0EFAAFB434D338545F9027F503CA0
:100240009FA851A3408F929D38F5BCB6DA2110FFCC
:10025000F3D2CD0C13EC5F974417C4A77E3D645DC9
:10026000197360814FDC222A908846EEB814DE5E56
:100270000BDBE0323A0A4906245CC2D3AC629195AA
:10028000E479E7C8376D8DD54EA96C56F4EA657AE6
:10029000AE08BA78252E1CA6B4C6E8DD741F4BBD87
:1002A0008B8A703EB5664803F60E613557B986C134
:1002B0001D9EE1F8981169D98E949B1E87E9CE5551
:1002C00028DF8CA1890DBFE6426841992D0FB054FB
:1002D000BB1611241FBECFEFDFE3DEBFCDBF00E0B2
:1002E0000CBF1CE2A0E0B0E2E4EFFCE100E00BBFD9
:1002F00002C007900D92A43DB107D9F711E3A4ED18
:10030000BCE201C01D92AC3FB107E1F70E9492012F
:100310000C94780E0C94000080E008950E941F0257
:1003200080E00895DF93CF93CDB7DEB7A097CDBF20
:10033000DEBFDE011196E0E0F0E280E201900D9276
:100340008150E1F70E942D0B0E943D0A81E0E0E020
:10035000F6E08183CE0101960E941F0288E60E948A
:100360007A0A85E60E947A0A8CE60E947A0A8CE66E
:100370000E947A0A8FE60E947A0A8AE00E947A0A2C
:100380000E9473098BE660E270E04EE851E00E9443
:100390004E0980E760E170E040E052E00E944E09C3
:1003A00084E660E170E041EE51E00E944E0988E78A
:1003B00060E070E04CE851E00E944E090E94AE09F6
:1003C000FDCFDF92EF92FF920F931F938C01E12CF0
:1003D00086E0F82EDD24D394F701D582C8010E946F
:1003E0003104F701D68282E760E170E0A8010E9443
:1003F0007B0980E01F910F91FF90EF90DF900895AF
:10040000DF92EF92FF920F931F938C01E12C96E005
:10041000F92EDD24D394F701D582C8010E949506F8
:10042000F701D68282E760E170E0A8010E947B09B3
:1004300080E01F910F91FF90EF90DF9008952F9231
:100440003F924F925F926F927F928F929F92AF9264
:10045000BF92CF92DF92EF92FF920F931F93DF93A1
:10046000CF93CDB7DEB7E197CDBFDEBFAC018093B0
:1004700016319093173120E030E0F901EA50F34D46
:10048000DA01A20FB31F8C9180832F5F3F4F203181
:10049000310599F7DA01E6E0FDE250968C9150972C
:1004A000819311962DE2E631F207B9F782E090E0F0
:1004B0008BA39CA33DC19C91F901EA52F34D90831B
:1004C000E1E0F0E0EC0FFD1FE20FF31F50968C917E
:1004D00050978083D0969C93D0972F5F3F4F119673
:1004E0002031310541F7A6EDBCE2A9A3BAA3469598
:1004F0004150A42FB0E054E0AA0FBB1F5A95E1F77A
:10050000A054B54DE9A1FAA180819D9189278193DD
:100510002CE2E63EF207C1F7DF015097EC91F0E0E4
:10052000E05EFF4D80818D933CE2A63EB307B1F7BC
:100530001BA6D5C0E1E1F0E0EC0FFD1FE20FF31FB9
:10054000D901AA52B34D8C9180832F5F3F4F203148
:10055000310581F78989A82FB0E0AEA7BFA78A89A6
:10056000E82FF0E0ECA7FDA78B89282F30E028AB1F
:1005700039AB8C89282E33248D89482E55248E89B9
:10058000682E77248F89882E9924888DA82EBB24E5
:10059000898DA82FB0E0ADA3BEA38A8DC82EDD241F
:1005A0008B8DE82EFF248C8D082F10E08D8D682F09
:1005B00070E08E8D482F50E08F8DE82FF0E0EFA394
:1005C000F8A788A1282F30E029A73AA7DE01509686
:1005D00020E030E08CA59DA5805E9B4D8CA79DA75B
:1005E000EEA5FFA5E05EF94DEEA7FFA788A999A9A2
:1005F000805E9A4D88AB99ABE0E2F3E22E0E3F1E8F
:1006000080E298E2480E591EE0E2F7E26E0E7F1E8D
:1006100080E292E2880E991EE0E2F9E2AE0EBF1E81
:1006200080E297E2C80ED91EE0E2F8E2EE0EFF1E6D
:10063000005E1C4D605E7A4D405E5B4D2223F1F5FD
:10064000ECA5FDA58081EEA5FFA590818927E8A9ED
:10065000F9A990818927F10190818927F201908180
:100660008927F30190818927F40190818927F50179
:1006700090818927EDA1FEA1E05EFD4D9081892743
:10068000F60190818927F70190818927F8019081EF
:100690008927FB0190818927FA0190818927EFA1A1
:1006A000F8A5E05EF94D90818927E9A5FAA5E05EFD
:1006B000FD4D908189278093D62C05C0F901EA521F
:1006C000F34D8C9180832F5F3F4F11962031310580
:1006D00009F0B4CFFBA5FF5FFBA7F03119F020E0D4
:1006E00030E028CFDE011196E6EDFCE280819D919D
:1006F000892781932CE2E63EF207C1F7EBA1FCA12A
:1007000044E0EE0FFF1F4A95E1F7EA50F34DA9A12F
:10071000BAA18D91A9A3BAA38193A65EBC42B9F7F1
:100720008BA19CA102968BA39CA38234910569F0B6
:100730004BA1ABA1BCA134E0AA0FBB1F3A95E1F7D6
:10074000AA52B34D20E030E0B6CE66EF7CE2E0E2A4
:10075000FAE226EFC22E2DE2D22E9F01205D3F4FFE
:1007600096EFE92E9EE2F92E06EF1FE280E8A82E12
:100770008AE2B82E46EF50E3DB018C9180835096DD
:100780008C91808BD6018C9180A350968C91D9014D
:100790008C93D7018C91D90150968C93D7015096A8
:1007A0008C91D90190968C93D8018C91D5018C9322
:1007B000D80150968C91D50150968C93DA018C918A
:1007C000D50190968C93E057FF4FDA0150968C91AB
:1007D00080836F5F7F4FEF58F0400894C11CD11C9D
:1007E0002F5F3F4F0894E11CF11C0F5F1F4F0894CF
:1007F000A11CB11C4F5F5F4FBDE266307B0709F063
:10080000BBCFE196CDBFDEBFCF91DF911F910F919E
:10081000FF90EF90DF90CF90BF90AF909F908F9020
:100820007F906F905F904F903F902F900895CF935F
:10083000DF93E091D42CF091D52C83859285892784
:100840009685892790E00E94080EC6EEDCE20E94A1
:10085000030E89938CE2C63FD807C9F7DF91CF9189
:1008600008952F923F924F925F926F927F928F9254
:100870009F92AF92BF92CF92DF92EF92FF920F932F
:100880001F93DF93CF93CDB7DEB7E697CDBFDEBF23
:100890008093D42C9093D52C0E941704A090D42C34
:1008A000B090D52CA98ABA8A26EE3CE22B8B3C8BE1
:1008B000D501F9018C91919189278D933CE2E63F16
:1008C000F307C1F780EC9AE28F8B988FE9E0F0E0B4
:1008D000ED8BFE8BF3C1E1E0F0E0EC0FFD1FE20FCA
:1008E000F31FD901AA51B34D8C9180832F5F3F4FE5
:1008F0002031310581F78A81282F30E029AB3AABCE
:100900008B81E82FF0E0EFA7F8AB8C81282F30E047
:100910002BAB3CAB8D81E82FF0E0EDABFEAB8E81D5
:10092000282E33248F81482E55248885682E7724DD
:100930008985882E99248A85282F30E0298F3A8F3F
:100940008B85C82EDD248C85E82EFF248D85082F0D
:1009500010E08E85682F70E08F85482F50E08889E1
:10096000E82FF0E0EB8FFC8F8981282F30E02D8F6E
:100970003E8FDE01129620E030E08FA598A9805EC0
:100980009B4D8FA798ABE9A9FAA9E05EF94DE9ABB9
:10099000FAAB8BA99CA9805E9A4D8BAB9CABEDA961
:1009A000FEA9E05EFC4DEDABFEAB80E298E2280EC6
:1009B000391EE0E2F7E24E0E5F1E80E292E2680E20
:1009C000791EE0E2F9E28E0E9F1E80E297E2C80EE9
:1009D000D91EE0E2F8E2EE0EFF1E005E1C4D605EE6
:1009E0007A4D405E5B4D2F3009F03FC0EFA5F8A96E
:1009F0008081E9A9FAA990818927EBA9FCA99081B6
:100A00008927EDA9FEA990818927F1019081892785
:100A1000F20190818927F30190818927F401908167
:100A20008927E98DFA8DE05EFD4D90818927F601D9
:100A300090818927F70190818927F8019081892782
:100A4000FB0190818927FA0190818927EB8DFC8D2C
:100A5000E05EF94D90818927ED8DFE8DE05EFD4DC4
:100A6000908189278093F52C05C0F901EA51F34D57
:100A70008C9180832F5F3F4F11962031310509F013
:100A8000B2CFFF8DFF5FFF8FF03119F020E030E033
:100A900022CFED89FE8964E0EE0FFF1F6A95E1F732
:100AA000E05EF54DD5018C91919189278D932F8929
:100AB000388DE217F307B9F71EA2DBC0E1E0F0E0E2
:100AC000EC0FFD1FE20FF31FD501A20FB31F8C9196
:100AD00080832F5F3F4F2031310581F78A81E82FD6
:100AE000F0E0E9A7FAA78B81282F30E02FA338A7E1
:100AF0008C81E82FF0E0EBA7FCA78D81282F30E058
:100B00002DA73EA78E81282E33248F81482E552471
:100B10008885682E77248985882E99248A85E82FF0
:100B2000F0E0E8A3F9A38B85C82EDD248C85E82EA0
:100B3000FF248D85082F10E08E85682F70E08F854B
:100B4000482F50E08889282F30E02AA33BA38981D1
:100B5000E82FF0E0ECA3FDA3DE01129620E030E0E8
:100B60008FA198A5805E9B4D8FA398A7E9A5FAA5B4
:100B7000E05EF94DE9A7FAA78BA59CA5805E9A4D8A
:100B80008BA79CA7EDA5FEA5E05EFC4DEDA7FEA7FB
:100B900080E298E2280E391EE0E2F7E24E0E5F1E78
:100BA00080E292E2680E791EE0E2F9E28E0E9F1E6C
:100BB00080E297E2C80ED91EE0E2F8E2EE0EFF1ED8
:100BC000005E1C4D605E7A4D405E5B4D2F3009F03B
:100BD0003FC0EFA1F8A58081E9A5FAA590818927FA
:100BE000EBA5FCA590818927EDA5FEA5908189271D
:100BF000F10190818927F20190818927F301908189
:100C00008927F40190818927E8A1F9A1E05EFD4DD3
:100C100090818927F60190818927F70190818927A2
:100C2000F80190818927FB0190818927FA01908141
:100C30008927EAA1FBA1E05EF94D90818927ECA10B
:100C4000FDA1E05EFD4D90818927F501878705C0F4
:100C5000F501E20FF31F8C9180832F5F3F4F1196B8
:100C60002031310509F0B2CFFEA1FF5FFEA3F031C4
:100C700019F020E030E022CF9501A6EEBCE28D9184
:100C8000F90190819827E92FF0E0E05EFE4D908118
:100C90009827F90191939F01FCE2A63FBF0779F7DE
:100CA0002F89388D205130402F8B388F8D899E8928
:100CB00001978D8B9E8B20533A4211F01F8EE6CE0A
:100CC000AF89B88D5097F50180819D9189278193D7
:100CD0002AE2A033B207C1F7E989FA898081EB895A
:100CE000FC899191EB8BFC8B8927E989FA898193A7
:100CF000E98BFA8B2B893C89265F3C4269F7E696A3
:100D0000CDBFDEBFCF91DF911F910F91FF90EF908C
:100D1000DF90CF90BF90AF909F908F907F906F901B
:100D20005F904F903F902F9008952F923F924F9257
:100D30005F926F927F928F929F92AF92BF92CF926B
:100D4000DF92EF92FF920F931F93DF93CF93CDB774
:100D5000DEB7E897CDBFDEBF8093D42C9093D52C1F
:100D60000E941704A090D42CB090D52CA98ABA8ADE
:100D700026EE3CE22B8B3C8BD501F9018C919191B5
:100D800089278D933CE2E63FF307C1F780E39AE2BF
:100D90008D8B9E8B1F8A188ECE01CFAB98AFEDC185
:100DA0008C91919189278D932D893E89E217F307C4
:100DB000B9F79501A6EEBCE28D91F90190819827D3
:100DC000E92FF0E0E05EFF4D90819827F9019193C3
:100DD0009F01FCE2A63FBF0779F71F8EDDC0E1E06F
:100DE000F0E0EC0FFD1FE20FF31FD501A20FB31FC0
:100DF0008C9180832F5F3F4F2031310581F78981AE
:100E0000282F30E029AB3AAB8A81E82FF0E0EFA73A
:100E1000F8AB8B81282F30E02BAB3CAB8C81E82FDB
:100E2000F0E0EDABFEAB8D81282E33248E81482E71
:100E300055248F81682E77248885882E992489856A
:100E4000282F30E0298F3A8F8A85C82EDD248B85A4
:100E5000E82EFF248C85082F10E08D85682F70E028
:100E60008E85482F50E08F85E82FF0E0EB8FFC8FC8
:100E70008889282F30E02D8F3E8F8FA998ADDC0117
:100E800020E030E08FA598A9805E9B4D8FA798AB9E
:100E9000E9A9FAA9E05EF94DE9ABFAAB8BA99CA9E7
:100EA000805E9A4D8BAB9CABEDA9FEA9E05EFC4D3C
:100EB000EDABFEAB80E298E2280E391EE0E2F7E2ED
:100EC0004E0E5F1E80E292E2680E791EE0E2F9E2C9
:100ED0008E0E9F1E80E297E2C80ED91EE0E2F8E275
:100EE000EE0EFF1E005E1C4D605E7A4D405E5B4D57
:100EF00021153105F1F5EFA5F8A98081E9A9FAA935
:100F000090818927EBA9FCA990818927EDA9FEA9E9
:100F100090818927F10190818927F20190818927A9
:100F2000F30190818927F40190818927E98DFA8D59
:100F3000E05EFD4D90818927F60190818927F701B8
:100F400090818927F80190818927FB019081892769
:100F5000FA0190818927EB8DFC8DE05EF94D90813F
:100F60008927ED8DFE8DE05EFD4D90818927F5018D
:100F700004C0F501E20FF31F8C9180832F5F3F4F78
:100F800011962031310509F0B3CFFF8DFF5FFF8F40
:100F9000F03111F41EA2E0C020E030E020CFE1E00B
:100FA000F0E0EC0FFD1FE20FF31FD901AA51B34D82
:100FB0008C9180832F5F3F4F2031310581F78981EC
:100FC000282F30E029A73AA78A81E82FF0E0EFA385
:100FD000F8A78B81282F30E02BA73CA78C81E82F26
:100FE000F0E0EDA7FEA78D81282E33248E81482EB8
:100FF00055248F81682E77248885882E99248985A9
:10100000282F30E028A339A38A85C82EDD248B85BC
:10101000E82EFF248C85082F10E08D85682F70E066
:101020008E85482F50E08F85E82FF0E0EAA3FBA3E0
:101030008889282F30E02CA33DA38FA998ADDC012F
:1010400020E030E08FA198A5805E9B4D8FA398A7EC
:10105000E9A5FAA5E05EF94DE9A7FAA78BA59CA53D
:10106000805E9A4D8BA79CA7EDA5FEA5E05EFC4D8A
:10107000EDA7FEA780E298E2280E391EE0E2F7E233
:101080004E0E5F1E80E292E2680E791EE0E2F9E207
:101090008E0E9F1E80E297E2C80ED91EE0E2F8E2B3
:1010A000EE0EFF1E005E1C4D605E7A4D405E5B4D95
:1010B0002115310509F03FC0EFA1F8A58081E9A510
:1010C000FAA590818927EBA5FCA590818927EDA53C
:1010D000FEA590818927F10190818927F2019081F5
:1010E0008927F30190818927F40190818927E8A15C
:1010F000F9A1E05EFD4D90818927F6019081892755
:10110000F70190818927F80190818927FB0190815F
:101110008927FA0190818927EAA1FBA1E05EF94DB8
:1011200090818927ECA1FDA1E05EFD4D908189278A
:101130008093E62C05C0F901EA51F34D8C91808330
:101140002F5F3F4F11962031310509F0B1CFFEA13D
:10115000FF5FFEA3F03119F020E030E020CF2F89AF
:10116000388D2F5F3F4F2F8B388F8D899E8940960A
:101170008D8B9E8B2930310559F0EF89F88D74E005
:10118000EE0FFF1F7A95E1F7E05EF54DD50108CE31
:10119000A0EBBAE2F50180819D91892781939AE2C3
:1011A000A03CB907C1F7E989FA898081EB89FC89FC
:1011B0009191EB8BFC8B8927E989FA898193E98BE3
:1011C000FA8B2B893C89265F3C4269F7E896CDBFB4
:1011D000DEBFCF91DF911F910F91FF90EF90DF90D5
:1011E000CF90BF90AF909F908F907F906F905F90C7
:1011F0004F903F902F900895CF93DF93EC01FA0129
:10120000DB0140E050E03CC09C9111962C9111977D
:10121000822F80538A3010F480830CC0822F815437
:10122000863010F4275305C0822F8156863070F522
:1012300027552083892F80538A3030F49295907FF0
:101240008081982B908318C0892F8154863020F498
:10125000892F90E0C79708C0892F81568630B0F457
:10126000892F90E08755904024E0880F991F2A9598
:10127000E1F72081282B20834F5F5F4F3196129634
:101280004C175D070CF220E030E002C021E030E0B6
:10129000C901DF91CF91089580E008952091183120
:1012A000309119312A303105D4F460347105B8F425
:1012B000F901EE0FFF1FEE0FFF1FE20FF31FE65EB7
:1012C000FE4C808361837283438354832F5F3F4F3F
:1012D000209318313093193120E030E002C021E032
:1012E00030E0C901089586E760E070E04CE459E021
:1012F0000E944E090895EF92FF920F931F93CF9390
:10130000DF937B01142F052F0E947A0A212F302FA3
:10131000C901EC0100E010E014C0E881E295EF7033
:10132000F0E0E054F34D80810E947A0AE991F0E008
:10133000EF70F070E054F34D80810E947A0A0F5FE5
:101340001F4F0E151F054CF38AE00E947A0ADF91A9
:10135000CF911F910F91FF90EF900895AF92BF92A0
:10136000CF92DF92EF92FF920F931F93DF93CF9371
:10137000CDB7DEB7C15CD040CDBFDEBF0E94730ADF
:10138000982F2091183130911931EAE1F1E3EE24E0
:10139000FF2407C080813596891751F00894E11C1D
:1013A000F11CE216F306B4F3E216F30609F456C094
:1013B000CC24DD248701000F111F000F111F0E0D1B
:1013C0001F1D055E1E4C32E4A32EB12CAC0EBD1EBB
:1013D0000EC00E94730A8A3009F440C08D30F1F1CA
:1013E000F501EC0DFD1D80830894C11CD11CD801B2
:1013F0008D919C91880F991FC816D90650F30E94B1
:10140000730A8A3011F08D3049F58701000F111FE2
:10141000000F111F0E0D1F1D065E1E4CB2E0EB2EBD
:10142000F12CEC0EFD1EF80181819281BE016E5BF4
:101430007F4FA7010E94FC08892B81F4D8011396E5
:10144000ED91FC911497C701199589838AE761E0B2
:1014500070E0AE014F5F5F4F0E947B09CF53DF4FBB
:10146000CDBFDEBFCF91DF911F910F91FF90EF9025
:10147000DF90CF90BF90AF900895E0E4F6E088E071
:10148000818384E08283E0EAF8E083E085838BE077
:1014900086831782848180618483848188608483C9
:1014A0000895DF93CF930F920F92CDB7DEB7FC0173
:1014B00069837A8320E030E00BC08091A10887FF28
:1014C00005C08091A008808381E008C02F5F3F4F56
:1014D00089819A812817390781F780E00F900F9052
:1014E000CF91DF9108958091A10887FFFCCF809173
:1014F000A0080895982F8091A10885FFFCCF9093B4
:10150000A0080895FC0160837183428314861386CA
:10151000168615860895FC0162830895FC01858571
:10152000968520E08F5F8370891321E0822F0895D4
:10153000DC011D968C911D971E969C911E9720E0B4
:101540008F5F83708917B1F021E01D968C911D97F4
:10155000FD01E80FF11D67838F5F83701D968C93EB
:101560001D97ED91FC91119783818C7F12969C9130
:10157000892B8383822F0895FC019385848520E045
:10158000981321E0822F0895DC011C968C911C9702
:10159000FD01E80FF11D83811C969C911C979F5FB4
:1015A00093701C969C930895DC011B969C911B974D
:1015B0009F5F93701C968C911C97ED91FC911197F5
:1015C0002081981711F480E008951B968C911B9749
:1015D000FD01E80FF11D23831B969C9381E0089584
:1015E000CF93DF93DC011E969C911E971D968C91E4
:1015F0001D97CD91DC911197891721F48B818C7FF8
:101600008B830FC01E968C911E97FD01E80FF11D74
:10161000878188831E968C911E978F5F83701E969C
:101620008C93DF91CF910895FC0170FF03C08481FA
:10163000816002C084818E7F848360830895FC0171
:10164000848180FF05C08081282F30E0316003C095
:101650008081282F30E0C9010895E0E5F0E0128292
:1016600015828091500088608093500080915100D5
:1016700083FFFCCF88ED84BF83E08093400088E047
:1016800080935000E0E0F6E080E681838583089552
:10169000089508956CE471E30E94970D08956CE439
:1016A00071E30E94910D0895DF93CF9300D00F92C4
:1016B000CDB7DEB7DC018C91898314968C91149799
:1016C0008A8318968C9118978B831C968C911C9703
:1016D0008C8370E0FB01E370F0709E012F5F3F4F41
:1016E000E20FF31F80818C93FB013196E370F07061
:1016F000E20FF31F808114968C9314976E5F7F4FD7
:10170000FB01E370F070E20FF31F808118968C9359
:1017100018976F5F7F4F63707070260F371FF90146
:1017200080811C968C932496CDBFDEBFCF91DF9134
:1017300008953F924F925F926F927F928F929F9205
:10174000AF92BF92CF92DF92EF92FF920F931F93CF
:10175000DF93CF93CDB7DEB76297CDBFDEBF5C011D
:101760003B01342E2C01DC0120E030E0F301E20FDC
:10177000F31F8C91908189278D932F5F3F4F2031EC
:101780003105A1F701E0CE014196898B9A8B8FC07C
:10179000470194E0880C991C9A95E1F7860C971CF8
:1017A00080E090E0F501E80FF91FE081F0E0EE52F3
:1017B000FE4FE491A1E0B0E0AC0FBD1FA80FB91F30
:1017C000EC9301968031910569F7CE01029661E0B4
:1017D0000E94540BCE01039662E00E94540BCE018E
:1017E000049663E00E94540B7E010894E11CF11CF6
:1017F0006501D70111966C9111978C91682713960A
:101800001C91139712968C911827162782E04BE1B2
:101810000E949B0DF701908191279827D6019C93F8
:1018200062818181682782E04BE10E949B0DF70174
:10183000918191279827D60111969C93638182818B
:10184000682782E04BE10E949B0DF701928191276E
:101850009827D60112969C9360818381682782E045
:101860004BE10E949B0DF701938119271827D601A0
:1018700013961C93E4E0F0E0EE0EFF1ECE0EDF1E8A
:1018800089899A89E816F90609F0B3CFD50120E0D5
:1018900030E0F401E20FF31F8C91908189278D9342
:1018A0002F5F3F4F20313105A1F70F5F3A94E02EB3
:1018B000FF2491E0931508F46BCFD50180E0EC9103
:1018C000F0E0EE52FE4FE491ED938F5F8031B9F777
:1018D000C501019661E00E94540BC501029662E0C9
:1018E0000E94540BC501039663E00E94540BF7015C
:1018F00084E0EE0FFF1F8A95E1F7E60DF71D20E06B
:10190000D2018C91919189278D932D012F5F2031E8
:10191000B9F76296CDBFDEBFCF91DF911F910F91D6
:10192000FF90EF90DF90CF90BF90AF909F908F90FF
:101930007F906F905F904F903F9008952F923F92CD
:101940004F925F926F927F928F929F92AF92BF92CF
:10195000CF92DF92EF92FF920F931F93DF93CF937B
:1019600000D00F92CDB7DEB7FC019B01F42EE52E1F
:101970008B0155E0169507955A95E1F7902EA02E0C
:10198000BB2487E090E0A80EB91E8A2C880C880C36
:1019900089EF9FEFA80EB91E43E0369527954A952B
:1019A000E1F78F2D9E2DBF01A9010E94130ECF2CB0
:1019B000DE2CE02EEE0CF02E10E02E010894411CDF
:1019C000511C32010894611C711C34E0232E312C0F
:1019D0002C0E3D1E81C06F2D70E0FB01E150F040E8
:1019E000EE0FFF1FEE0FFF1FEC0DFD1D808191819B
:1019F000A281B38189839A83AB83BC83F01619F1EA
:101A000098E0991609F045C0CB0187709070049753
:101A100009F03FC0E981F0E0EE52FE4FE491E98326
:101A2000EA81F0E0EE52FE4FE491EA83EB81F0E0D0
:101A3000EE52FE4FE491EB83EC81F0E0EE52FE4F6C
:101A4000E491EC8326C0F1012081F2013081F301A1
:101A50008081E82FF0E0EE52FE4F9491EB81F0E0B0
:101A6000EE52FE4FE491EA83E22FF0E0EE52FE4F99
:101A700084918B83E32FF0E0EE52FE4F84918C83B0
:101A8000E12FF0E0E853FE4FE4919E2799831F5F1A
:101A90000E2D660F771F660F771F6C0D7D1DEF2DC6
:101AA000F0E0EA19FB09EE0FFF1FEE0FFF1FEC0D30
:101AB000FD1D80819181A281B38129813A814B8171
:101AC0005C8182279327A427B527FB01808391831C
:101AD000A283B383F394E394F81408F47CCF2496A0
:101AE000CDBFDEBFCF91DF911F910F91FF90EF909F
:101AF000DF90CF90BF90AF909F908F907F906F902E
:101B00005F904F903F902F900895AB0160E071E09F
:101B10000E949E0C0895AB0160EC70E00E949E0C48
:101B20000895AB0160E870E00E949E0C08954AE0C1
:101B30000E94990B0895782F8827769531F008F444
:101B40008627660F08F46427F8CF08F486270895DF
:101B5000AF92BF92CF92DF92EF92FF920F931F93BB
:101B6000CF93DF93EC01A880B980CA80DB80A114F9
:101B7000B104C104D10441F484E2A82E89EDB82E49
:101B80008BE5C82E87E0D82EC601B5012DE133EFD5
:101B900041E050E00E943B0E27EA31E440E050E093
:101BA0000E941C0E7B018C01C601B5012DE133EFB3
:101BB00041E050E00E943B0ECA01B9012CEE34EF27
:101BC0004FEF5FEF0E941C0E6E0D7F1D801F911F57
:101BD00097FF04C0615070408040904868837983CB
:101BE0008A839B839B013F77C901DF91CF911F912E
:101BF0000F91FF90EF90DF90CF90BF90AF9008953E
:101C00000E94A80D089580ED9CE20E94A80D089501
:101C1000A0E0B0E08093D02C9093D12CA093D22C54
:101C2000B093D32C0895FB01DC0102C001900D920A
:101C300041505040D8F70895629FD001739FF00142
:101C4000829FE00DF11D649FE00DF11D929FF00D4C
:101C5000839FF00D749FF00D659FF00D9927729F83
:101C6000B00DE11DF91F639FB00DE11DF91FBD010E
:101C7000CF011124089597FB092E05260ED057FD9C
:101C800004D014D00AD0001C38F4509540953095FB
:101C900021953F4F4F4F5F4F0895F6F790958095F0
:101CA000709561957F4F8F4F9F4F0895A1E21A2E37
:101CB000AA1BBB1BFD010DC0AA1FBB1FEE1FFF1FF0
:101CC000A217B307E407F50720F0A21BB30BE40B40
:101CD000F50B661F771F881F991F1A9469F7609587
:101CE0007095809590959B01AC01BD01CF01089541
:041CF000F894FFCF96
:101CF4008899AABBCCDDEEFF0011223344556677E8
:101D0400FEDCBA98765432100123456789ABCDEFD7
:101D1400FCEEDD11CF6E3116FBC4FADA23C5044D97
:101D2400E977F0DB932E99BA1736F1BB14CD5FC176
:101D3400F918655AE25CEF21811C3C428B018E4FFD
:101D4400058402AEE36A8FA0060BED987FD4D31FFF
:101D5400EB342C51EAC848ABF22A68A2FD3ACECC47
:101D6400B5700E56080C7612BF7213479CB75D8788
:101D740015A19629107B9AC7F391786F9D9EB2B1F5
:101D84003275193DFF358A7E6D54C680C3BD0D572B
:101D9400DFF524A93EA843C9D779D6F67C22B90336
:101DA400E00FECDE7A94B0BCDCE828504E330A4AEB
:101DB400A79760731E0062441AB83882649F264154
:101DC400AD454692275E552F8CA3A57D69D5953BDD
:101DD4000758B34086AC1DF730376BE488D9E789E0
:101DE400E11B83494C3FF8FE8D53AA90CAD8856104
:101DF400207167A42D2B095BCB9B25D0BEE56C52CB
:101E040059A674D2E6F4B4C0D166AFC2394B63B6F6
:101E1400A52D328F0E3038C054E69E39557E52912E
:101E24006403575A1C6007182172A8D129C6A43F1D
:101E3400E0278D0C82EAAEB49A6349E542E415B713
:101E4400C806709D417519C9AAFC4DBF2A7384D573
:101E5400C3AF2B86A7B1B25B46D39FFDD40F9C2F93
:101E64009B43EFD979B6537FC1F023E7255EB51EB6
:101E7400A2DFA6FEAC22F9E24ABC35CAEE78056BB5
:101E840051E159A3F27156116A8994658CBB773C70
:101E94007B28ABD231DEC45FCCCF762CB8D82E36BB
:101EA400DB69B31495BE62A13B1666E95C6C6DAD4B
:101EB40037614BB9E3BAF1A08583DA47C5B033FA89
:101EC400966F6EC2F650FF5DA98E171B977DEC5876
:101ED400F71FFB7C090D7A674587DCE84F1D4E042C
:101EE400EBF8F33E3DBD8A88DDCD0B139802938059
:101EF40090D02434CBEDF4CE99104440923A01268C
:101F0400121A4868F5818BC7D6200A08004CD7748A
:101F1400000102030405060708090A0B0C0D0E0F45
:101F2400101112131415161718191A1B1C1D1E1F35
:101F3400202122232425262728292A2B2C2D2E2F25
:101F4400303132333435363738393A3B3C3D3E3F15
:101F5400404142434445464748494A4B4C4D4E4F05
:101F6400505152535455565758595A5B5C5D5E5FF5
:101F7400606162636465666768696A6B6C6D6E6FE5
:101F8400707172737475767778797A7B7C7D7E7FD5
:101F9400808182838485868788898A8B8C8D8E8FC5
:101FA400909192939495969798999A9B9C9D9E9FB5
:101FB400A0A1A2A3A4A5A6A7A8A9AAABACADAEAFA5
:101FC400B0B1B2B3B4B5B6B7B8B9BABBBCBDBEBF95
:101FD400C0C1C2C3C4C5C6C7C8C9CACBCCCDCECF85
:101FE400D0D1D2D3D4D5D6D7D8D9DADBDCDDDEDF75
:101FF400E0E1E2E3E4E5E6E7E8E9EAEBECEDEEEF65
:10200400F0F1F2F3F4F5F6F7F8F9FAFBFCFDFEFF54
:1020140000102030405060708090A0B0C0D0E0F03C
:10202400C3D3E3F38393A3B34353637303132333FC
:102034004555657505152535C5D5E5F58595A5B5CC
:102044008696A6B6C6D6E6F60616263646566676AC
:102054008A9AAABACADAEAFA0A1A2A3A4A5A6A7A5C
:102064004959697909192939C9D9E9F98999A9B95C
:10207400CFDFEFFF8F9FAFBF4F5F6F7F0F1F2F3FEC
:102084000C1C2C3C4C5C6C7C8C9CACBCCCDCECFC0C
:10209400D7C7F7E79787B7A757477767170737274C
:1020A40014043424544474649484B4A4D4C4F4E46C
:1020B4009282B2A2D2C2F2E212023222524272627C
:1020C4005141716111013121D1C1F1E19181B1A17C
:1020D4005D4D7D6D1D0D3D2DDDCDFDED9D8DBDADAC
:1020E4009E8EBEAEDECEFEEE1E0E3E2E5E4E7E6E8C
:1020F40018083828584878689888B8A8D8C8F8E8DC
:10210400DBCBFBEB9B8BBBAB5B4B7B6B1B0B3B2B9B
:102114000020406080A0C0E0C3E383A343630323A3
:1021240045650525C5E585A586A6C6E60626466653
:102134008AAACAEA0A2A4A6A49690929C9E989A903
:10214400CFEF8FAF4F6F0F2F0C2C4C6C8CACCCECB3
:10215400D7F797B7577717371434547494B4D4F423
:1021640092B2D2F21232527251711131D1F191B153
:102174005D7D1D3DDDFD9DBD9EBEDEFE1E3E5E7E83
:102184001838587898B8D8F8DBFB9BBB5B7B1B3BB3
:102194006D4D2D0DEDCDAD8DAE8EEECE2E0E6E4E63
:1021A40028086848A888E8C8EBCBAB8B6B4B2B0B93
:1021B400E7C7A7876747270724046444A484E4C4C3
:1021C400A282E2C22202624261412101E1C1A181F3
:1021D400BA9AFADA3A1A7A5A79593919F9D9B99963
:1021E400FFDFBF9F7F5F3F1F3C1C7C5CBC9CFCDC13
:1021F40030107050B090F0D0F3D3B39373533313C3
:1022040075553515F5D5B595B696F6D63616765672
:102214000085C94C51D4981DA2276BEEF3763ABFC2
:1022240087024ECBD6531F9A25A0EC6974F1BD38B2
:10223400CD4804819C1955D06FEAA6233EBBF772A2
:102244004ACF83061B9ED257E86D21A4B93C70F592
:1022540059DC9015088DC144FB7E32B7AA2F63E682
:10226400DE5B17928F0A46C37CF9B5302DA8E46172
:1022740094115DD8C5400C8936B3FF7A67E2AE2B62
:102284001396DA5F42C78B0EB13478FDE06529AC52
:10229400B2377BFEE3662AAF1095D95C41C4880D42
:1022A40035B0FC7964E1AD2897125EDBC6430F8A32
:1022B4007FFAB6332EABE762DD5814918C0945C022
:1022C400F87D31B4A92C60E55ADF93160B8EC24712
:1022D400EB6E22A7BA3F73F649CC8005189DD15402
:1022E4006CE9A5203DB8F471CE4B07829F1A56D3F2
:1022F40026A3EF6A77F2BE3B84014DC8D5501C99E2
:10230400A12468EDF07539BC0386CA4F52D79B1ED1
:102314000094EB7F1581FE6A2ABEC1553FABD440C1
:1023240054C0BF2B41D5AA3E7EEA95016BFF8014B1
:10233400A83C43D7BD2956C2821669FD97037CE8A1
:10234400FC681783E97D0296D6423DA9C35728BC91
:10235400930778EC86126DF9B92D52C6AC3847D381
:10236400C7532CB8D24639ADED790692F86C138771
:102374003BAFD0442EBAC5511185FA6E0490EF7B61
:102384006FFB84107AEE910545D1AE3A50C4BB2F51
:10239400E5710E9AF0641B8FCF5B24B0DA4E31A541
:1023A400B1255ACEA4304FDB9B0F70E48E1A65F131
:1023B4004DD9A63258CCB32767F38C1872E6990D21
:1023C400198DF2660C98E77333A7D84C26B2CD5911
:1023D40076E29D0963F7881C5CC8B72349DDA23601
:1023E40022B6C95D37A3DC48089CE3771D89F662F1
:1023F400DE4A35A1CB5F20B4F4601F8BE1750A9EE1
:102404008A1E61F59F0B74E0A0344BDFB5215ECAD0
:1024140000C043838646C505CF0F8C4C49890ACA40
:102424005D9D1EDEDB1B98589252D11114D4579730
:10243400BA7AF9393CFC7FBF75B536F6F333B07020
:10244400E727A46461A122E228E86BABAE6EED2D10
:10245400B777F43431F172B278B83BFBFE3EBD7D00
:10246400EA2AA9696CAC2FEF25E566A6A363E020F0
:102474000DCD4E8E8B4BC808C2028141448407C7E0
:10248400509013D3D61695559F5FDC1C19D95A9AD0
:10249400AD6DEE2E2BEB68A862A221E1E424A767C0
:1024A400F030B37376B635F53FFF7CBCB979FA3AB0
:1024B40017D754949151D212D8189B5B5E9E1DDDA0
:1024C4004A8A09C9CC0C8F4F8545C60603C3408090
:1024D4001ADA59999C5CDF1FD5159656539310D080
:1024E400478704C4C10182428848CB0B0ECE4D8D70
:1024F400A060E32326E665A56FAF2CECE929AA6A60
:10250400FD3DBE7E7BBB38F832F271B1B474F7374F
:1025140000C247858E4CC90BDF1D985A519316D4BF
:102524007DBF3AF8F331B476A260E5272CEE6BA9AF
:10253400FA38BD7F74B633F125E762A0AB69EC2E9F
:102544008745C00209CB4E8C589A1FDDD61491538F
:1025540037F570B2B97BFE3CE82AAF6D66A421E37F
:102564004A880DCFC40683419557D2101BD95C9E6F
:10257400CD0F8A48438104C612D055979C5EDB195F
:10258400B072F7353EFC79BB6FAD28EAE123A6644F
:102594006EAC29EBE022A765B173F6343FFD78BA3F
:1025A40013D154969D5FDA18CC0E8B49428005C72F
:1025B4009456D3111AD85D9F4B890CCEC50782401F
:1025C400E92BAE6C67A520E236F471B3B87AFF3D0F
:1025D400599B1EDCD71590528644C10308CA4F8DFF
:1025E40024E663A1AA68ED2FFB39BC7E75B732F0EF
:1025F400A361E4262DEF6AA87CBE3BF9F230B577DF
:10260400DE1C995B509217D501C346848F4DC80ACE
:1026140000FB35CE6A915FA4D42FE11ABE458B70BE
:102624006B905EA501FA34CFBF448A71D52EE01BAE
:10263400D62DE318BC47897202F937CC68935DA69E
:10264400BD468873D72CE21969925CA703F836CD8E
:102654006F945AA105FE30CBBB408E75D12AE41F7E
:1026640004FF31CA6E955BA0D02BE51EBA418F746E
:10267400B9428C77D328E61D6D9658A307FC32C95E
:10268400D229E71CB8438D7606FD33C86C9759A24E
:10269400DE25EB10B44F817A0AF13FC4609B55AE3E
:1026A400B54E807BDF24EA11619A54AF0BF03EC52E
:1026B40008F33DC6629957ACDC27E912B64D83781E
:1026C400639856AD09F23CC7B74C8279DD26E8130E
:1026D400B14A847FDB20EE15659E50AB0FF43AC1FE
:1026E400DA21EF14B04B857E0EF53BC0649F51AAEE
:1026F400679C52A90DF638C3B348867DD922EC17DE
:102704000CF739C2669D53A8D823ED16B249877CCD
:102714008899AABBCCDDEEFF0011223344556677BD
:10272400FEDCBA98765432100123456789ABCDEFAD
:10273400DB31485315694343228D6AEF8CC78C44BF
:102744003D4553D8E9CFEC6815EBADC40A9FFD04B1
:1027540057646468C44A5E28D3E59246F429F1AC10
:10276400BD079435165C6432B532E82834DA581B58
:1027740051E640757E8745DE705727265A0098B18A
:102784005A7925017B9FDD3ED72A91A22286F984BE
:10279400BB44E25378C73123A5F32F73CDB6E517B5
:1027A40072E9DD7416BCF45B755DBAA88E4A4043C9
:1027B4006EA276726C487AB85D27BD10DD849401F0
:1027C400DC87ECE4D890F4B3BA4EB92079CBEB02B1
:1027D400B2259A96B4D88E0BE7690430A44F7F03D0
:1027E4007BCD1B0B73E32BA5B79CB140F2551504AD
:1027F400156F6D791FAB511DEABB0C502FD18105AC
:10280400A74AF7EFAB73DF160DD208608B9EFE0666
:10281400C9E8819DC73BA5AE50F5B570561A6A0745
:10282400F6593616E6055689ADFBA18027AA2A0873
:1028340098FB40648A4D2C31F0DC1C90FA2EBE09C2
:102844002ADEDAF23E95A23A17B518A05E61C10AF3
:10285400447CAC8052DDD8824A92A5B083E5550B06
:102864008D942D1D95E67D2C1A6710C0D5FF3F0C65
:10287400E3365B6FF9AE07944740ADD0087BAB0DF0
:102884005113C1F94D76899FA029A9E0AC34D40E27
:102894003FB1B78B213EF327FD0E14F071B0400F0A
:1028A4002FB26C2C0F0AACD1993581C34E975410BA
:1028B40041101A5E6342D669C4123CD39313C0110B
:1028C400F33580C8D79A5862237B38E3375CBF124C
:1028D4009D97F6BABBD222DA7E5C85F3EAD82B1335
:1028E400547F77277CE987742EA93083BCC24114B6
:1028F4003ADD015510A1FDCC738E8D936146D5153B
:1029040088F89BC3A47973C794E789A3C509AA1659
:10291400E65AEDB1C831097FC9C034B3188D3E17EA
:10292400D9EB5A3AE90FFA5834CE2043693D7E1860
:10293400B7492C48854780E069E99D53B4B9EA1941
:10294400056CB6DE319F0EEB8E80996310F6951AF6
:102954006BCEC0AC5DD77453D3A72473CD72011B67
:10296400A22641319AECD1FD835291039B686B1CE2
:10297400CC843743F6A4AB45DE752C1346ECFF1D1F
:102984007EA1ADD5427C254E391C2823E2A3801EAE
:102994001003DBA72E345FF6643B95333F27141FE7
:1029A4005EA7D8581E149B61F16AC1459CEDA8200E
:1029B4003031323334353637383941424344454671
:0429C400010000000E
:00000001FF
